:06000000020C3B02006B44
:03000B0002006B85
:0300130002006B7D
:03001B0002006B75
:0300230002006B6D
:03002B0002006B65
:0300330002006B5D
:03003B0002006B55
:0300430002006B4D
:03004B0002006B45
:0300530002006B3D
:03005B0002006B35
:0300630002006B2D
:01006B003262
:0900800002006B0002006B00029B
:08008900006B0002006B000295
:08009100006B0002006B00028D
:08009900006B0002006B000285
:0800A100006B0002006B00027D
:0800A900006B0002006B000275
:0700B100006B0002006B0070
:0901000002006B0002006B00021A
:08010900006B0002006B000214
:08011100006B0002006B00020C
:08011900006B0002006B000204
:08012100006B0002006B0002FC
:08012900006B0002006B0002F4
:08013100006B0002006B0002EC
:08013900006B0002006B0002E4
:08014100006B0002006B0002DC
:08014900006B0002006B0002D4
:08015100006B0002006B0002CC
:08015900006B0002006B0002C4
:08016100006B0002006B0002BC
:08016900006B0002006B0002B4
:08017100006B0002006B0002AC
:07017900006B0002006B00A7
:030C4100020C445E
:030C570002018017
:0501800012018580FE64
:070185001203241203AC1267
:09018C00040475820112050775D7
:0B01950008187582BC12042EC2AF12C5
:0A01A00007331208DAD2EAD2AF12D8
:0501AA0005D40202F380
:0501AF0090E68BE4F076
:0901B40090E6A0E0FA20E1F82237
:0E01BD0090E6B8E0FABAC05090E6B9E0FABA9F
:0D01CB00804490E6BCE0FA601EBA01369058
:0D01D800E6C1E0FA235401FA90E740F090F0
:0D01E500E68AE4F090E68B7401F00202EF70
:0E01F20090E6C1E0FA235401FA90E740F09045
:0D020000E68AE4F090E68B7401F00202EF54
:04020D0075820022D4
:0402110075820022D0
:0A02150090E6B8E0FABA4002800358
:03021F000202EBED
:0A02220090E6B9E0FABA0102800983
:06022C00BA03030202C543
:030232000202E7DE
:0D02350090E6BAE0606290E6C67480F0903A
:0E024200E6C774EDF090E6C8E4F090E6C9F06F
:0E02500090E6CAF090E6CBF090E6CC7403F096
:0D025E0090E6CD7402F090E60CE4F0009004
:0E026B00E6F574FFF00075BB000090E6C77466
:0E027900EDF00090E6047480F00090E604744E
:0E02870002F00090E6047406F00090E604E435
:08029500F00075BB0600805269
:0E029D0075BB000090E6F574FFF00090E604DB
:0E02AB007480F00090E6047402F00090E60407
:0C02B9007406F00090E604E4F000802AD7
:0C02C50090E6BBE0FA90E6BAE0F5098A8A
:0E02D1008212047890E6BBE0FA90E6BAE0F5FF
:0802DF00098A821204788008EC
:0402E70075820022FA
:0402EB0075820022F6
:0402EF0075820122F1
:0D02F30090E6C67480F090E6C774EDF090C0
:0D030000E6C8E4F090E6C9F090E6CAF0907F
:0E030D00E6CBF090E6CC7403F090E6CD7402DF
:07031B00F090E60CE4F00095
:0203220080FE5B
:0E03240090E6007410F0758E0090E6017402F1
:0E033200F00090E61074A0F00090E61174E068
:0E034000F00090E612E4F00090E613E4F00006
:0E034E0090E61474E0F00090E615E4F00090E4
:0E035C00E6047480F00090E6047406F0009051
:0E036A00E604E4F00090E618E4F090E619F0E6
:0D03780090E61A740CF090E61BE4F0009083
:0E038500E68AE4F00090E68DE4F00090E6E2F7
:0E0393007402F00090E6E37401F00090E6249E
:0B03A1007402F00090E625E4F000225A
:0E03AC0090E6F574FFF000900CFEE493FA90DA
:0E03BA00E6F3F0900CFFE493FA90E6C3F090A7
:0E03C8000D00E493FA90E6C1F0900D01E4936D
:0E03D600FA90E6C2F0900D03E493FA90E6C0B0
:0303E400F07A00AC
:0303E700BA8000D9
:0E03EA0050128A037CE4EA900C5A93FD8B8239
:0603F8008C83F00A80E98D
:0603FE0090E6C6E4F022C7
:0E0C5A0001010101010101070000000000007E
:0E0C680000000000000000000000000000007E
:0E0C76000000003F0101010101010107000023
:0E0C8400000000000000000000000000000062
:0E0C9200000000000000003F380101010101D8
:0E0CA00001070302020202020200000000002F
:0E0CAE0000000000360000000000003F38018A
:0E0CBC0001010101010703020202020202000F
:0E0CCA000000000000000000360000000000E6
:020CD800003FDB
:0E0CDA0000000000000000000000000000000C
:0E0CE8000000000080ED00000000030200800C
:080CF600EE0000000003020003
:070CFE00A0000000AE4E0053
:0E040400C280C281C282D283C284C285C286F7
:0E041200C28775B2FFC2B0C2B1C2B2C2B3C2DD
:0E042000B4C2B5C2B6C2B775B5FF7582002270
:0E042E00AA8275B2FF758201C0021205FBD0D2
:0E043C00025380F7758201C0021205FBD00248
:0E044A005380FE758201C0021205FBD0028AAB
:08045800821204918508821252
:0E04600004917582011205FB43800175820133
:0A046E001205FB75B2F97582002239
:0C04780075B2FF5380F6120491850982D2
:0D04840012049143800175B2F975820022C7
:0A049100AA827B807C007D007E00C3
:0E049B00C3ED9408EE940050598A077800EBE8
:0E04A9005207EC5200ECC313CB13CBFCEF4810
:0504B700600343800218
:0E04BC00758201C002C003C004C005C0061254
:0E04CA0005FBD006D005D004D003D00243803D
:0E04D80004758201C002C003C004C005C00646
:0E04E6001205FBD006D005D004D003D002537F
:0904F40080F90DBD00A10E809EEF
:0A04FD007582011205FB75820022D2
:0E050700AA82AB8074F85B4408F580EA42805B
:0405150075820022C9
:0E051900C2B0C2B2D2B3C2B475B5FFD280C2B6
:0E05270081C282D283C284C285C286C2877519
:06053500B2FF75820022F6
:0E053B00C2B0C2B1C2B2C2B3C2B4C2B5C2B67F
:0E054900C2B790000112060ED2B0D2B1D2B2EB
:0E055700D2B3D2B4D2B5D2B6D2B79000011250
:06056500060E7582002263
:08056B00D284D28575820022C2
:08057300C284C28575820022DA
:0E057B00C284C28590000112060ED284D28581
:040589007582002255
:0EE0000012010002FFFFFF40C0162F070201B1
:04E00E000102060104
:0AE012000A060002FFFFFF400100B4
:0EE01C0009023200030100C0000904000000E8
:0EE02A00FFFFFF030904010001FFFFFF0407D1
:0EE038000502020002000904020001FFFFFFC2
:08E04600050705860200020037
:0EE04E0012010002FFFFFF40C0162F07020163
:04E05C0001020001BC
:0AE060000A060002FFFFFF40010066
:0EE06A0009021200010100C0000904000000BC
:04E07800FFFFFF03A4
:01E07C00079C
:02E07D008CE035
:02E07F0092E02D
:02E08100A8E015
:02E08300BCE0FF
:02E08500DEE0DB
:02E08700FAE0BD
:02E0890014E1A0
:06E08C0006030000090478
:0EE0920016034C0054005500200045004900C4
:08E0A00053004C004100420056
:0EE0A800140347004E003300530020007600A2
:06E0B60030002E003100D5
:0EE0BC00220343006F006D006D0061006E00D6
:0EE0CA00640020002600200053007400610056
:06E0D800740075007300E6
:0EE0DE001C035400720061006E0073006D00A0
:0EE0EC0069007400200050006100740068009C
:0EE0FA001A035200650063006500690076009D
:0CE10800650020005000610074006800F9
:0CE114000C0331003000300030003000FF
:08058D007800E84400600C79DD
:0C05950000901800E4F0A3D8FCD9FAD0C4
:0E05A10083D082F6D8FDC082C083758200220E
:0905AF0090E6A0E0FA4401F022FC
:0E05B800AA8274805AFBC423541FFB740F5A8E
:0E05C60090E6834BF090E683E0FA4420F022AA
:0E05D40090E680E0FA440AF09000FA12060E5B
:0E05E20090E65D74FFF090E65F74FFF05391B9
:0A05F000EF90E680E0FA54F7F022E5
:060C5100E478FFF6D8FD77
:0105FA0022DE
:0205FB00AA82D2
:0605FD001205FADAFB22F0
:0306030090FB5019
:08060600A3E582458370F9228F
:04060E00AA82AB838E
:080612001206031ABAFF011BD6
:07061A00BA00F5BB00F2225B
:05062100AA82BA0300EB
:070626004005EA249C50018D
:01062D0022AA
:09062E00740F5AFBBB03028007A4
:07063700740F5AFBBB0B45D9
:0A063E00A2AF9200C2AFEA2400F55B
:0C06480082E43400F5837402F07B00743F
:0C065400012AFCE43BFDEC2400F582EDE3
:0A0660003400F583E515FCF0740288
:0C066A002AFAE43BFBEA2400F582EB34A2
:0A06760000F583AA147B00EAF0A24D
:030680000092AF36
:010683002254
:08068400E582FA2483500122F3
:07068C0074035AFB60012218
:0A069300A2AF9201C2AFEA2400F505
:0C069D0082E43401F5837402F07B0074E9
:0C06A900012AFCE43BFDEC2400F582ED8E
:0A06B5003401F583E515FCF0740232
:0C06BF002AFAE43BFBEA2400F582EB344D
:0A06CB0001F583AA147B00EAF0A2F7
:0406D5000192AF22BD
:0506D900AA82BA8000B6
:0706DE004005EA244B500126
:0106E50022F2
:0706E60074035AFB600122BE
:0A06ED00A2AF9202C2AFEA2480F52A
:0C06F70082E43400F5837402F07B007490
:0C070300012AFCE43BFDEC2480F582EDB3
:0A070F003400F583E515FCF07402D8
:0C0719002AFAE43BFBEA2480F582EB3472
:0A07250000F583AA147B00EAF0A29D
:04072F000292AF2261
:08073300C2E8C2EA751400756A
:06073B0015017582431256
:040741000621751404
:03074500807515A7
:0C074800007582531206210090E650E478
:0E075400F00090E652E4F00090E654E4F0006D
:0E07620090E656E4F00090E65174FFF000902F
:0E077000E65374FFF00090E65574FFF0009021
:0E077E00E65774FFF00090E658E4F090E6595C
:0E078C0074FFF090E65AE4F090E65B74FFF024
:0E079A0090E65CE4F090E65D74FFF090E65EA1
:0E07A800E4F090E65F74FFF00090E660E4F08D
:0D07B6000090E66174FFF090E662E4F090C0
:0E07C300E66374FFF090E665E4F090E668747B
:0A07D1000BF05391AFD2E8D2EA22F8
:060C3B00750A00750B00B4
:0A07DB0090E680E0FA30E719750C93
:0307E50000750D8F
:0307E800E0750EAB
:0307EB0012750F75
:0307EE00E07510A3
:0307F1001C751163
:0307F400E075129B
:0307F7006A75130D
:0207FA00E022FB
:0407FC00750C4E75B5
:030800000DE07593
:030803000E60750F
:030806000FE0758B
:03080900106A75FD
:03080C0011E07583
:03080F00121C7543
:0308120013E022CE
:0E081500C0E0C0F0C082C083C002C003C004B7
:0E082300C005C006C007C000C001C0D075D01F
:0C083100005391EF75A100D20312097072
:0E083D00D0D0D001D000D007D006D005D00416
:0D084B00D003D002D083D082D0F0D0E032B4
:0E085800C0E0C0F0C082C083C002C003C00474
:0E086600C005C006C007C000C001C0D075D0DC
:0E087400005391EF75A1001207DBD0D0D00128
:0E088200D000D007D006D005D004D003D0029D
:09089000D083D082D0F0D0E03218
:0E089900C0E0C0F0C082C083C002C003C00433
:0E08A700C005C006C007C000C001C0D075D09B
:0E08B500005391EF75A1001207DBD0D0D001E7
:0E08C300D000D007D006D005D004D003D0025C
:0908D100D083D082D0F0D0E032D7
:0508DA001207DB75149C
:0308DF0015751577
:0808E2000875820012068475FE
:0308EA001458752A
:0608ED00150875821012CF
:0408F30006847514EE
:0308F700997515DB
:0C08FA000875821412068490E65C7431CC
:02090600F022DD
:0D090800E582547FFA24F750047582002226
:07091500BA01047582012202
:08091C00530201E4BA000104DA
:03092400F5822237
:0E092700AA82BA010C90E6A1E0FB7C008B8254
:030935008C83228E
:0E093800BA810C90E6A2E0FB7C008B828C83DF
:01094600228E
:0E09470053027FEA700C90E6A0E0FB7C008B70
:04095500828C8322EB
:0E09590090E6A3E0FB7C00EAC313FA7D00EAFF
:090967002BFBED3C8B82F5832291
:0C097000C20390E6B8E0FA530260BA003F
:03097C00028028CE
:05097F00BA2002800D0A
:05098400BA4002800EE4
:05098900BA60028003CA
:03098E00020C3226
:060991001205AF020C325A
:0A0997001201BDE5826003020C327C
:0609A1001205AF020C324A
:0D09A70090E6B8E0FA530280BA80028003A7
:0309B400020B2E05
:0B09B70090E6B9E0FABA0003020AAAB9
:0509C200BA06028035B9
:0509C700BA08028008DF
:0509CC00BA0A028017C9
:0309D100020B28EE
:0C09D40090E740E50AF090E68AE4F0901D
:0809E000E68B7401F0020C32F9
:0C09E80090E740E50BF090E68AE4F09008
:0809F400E68B7401F0020C32E5
:0A09FC0090E6BBE0FABA0102801792
:050A0600BA0202803875
:050A0B00BA030280594E
:050A1000BA0602801B84
:050A1500BA0702803C5D
:030A1A00020AA429
:0A0A1D00AA0CAB0D90E6B3EBF07BE2
:090A27000090E6B4EAF0020C3282
:0A0A3000AA0EAB0F90E6B3EBF07BCB
:090A3A000090E6B4EAF0020C326F
:0A0A4300AA10AB1190E6B3EBF07BB4
:090A4D000090E6B4EAF0020C325C
:0A0A5600AA12AB1390E6B3EBF07B9D
:090A60000090E6B4EAF0020C3249
:0E0A690090E6BAE0FA90E07CE0FBC3EA9B4026
:070A7700061205AF020C326C
:0C0A7E0090E6BAE0FA75F002A4247DF5C1
:0C0A8A008274E035F0F583E0FAA3E0FB95
:0E0A960090E6B3F07B0090E6B4EAF0020C327A
:060AA4001205AF020C3246
:0D0AAA0090E6B8E0FA53021FBA0002800A7D
:050AB700BA0102801CE1
:050ABC00BA0266802C67
:0E0AC10090E7407401F090E741E4F090E68A7F
:090ACF00F090E68B7402F08050F7
:0E0AD80090E740E4F090E741F090E68AF0905D
:070AE600E68B7402F0803B77
:0E0AED0090E6BCE0FAF582120908E582602569
:0E0AFB0090E6BCE0FAF582120927E0FA5302F9
:0E0B09000190E740EAF090E741E4F090E68AC0
:090B1700F090E68B7402F08008F6
:050B20001205AF800387
:030B25001205AF07
:060B28001205AF020C32C1
:0C0B2E0090E6B9E0FA24F45003020C2F0A
:070B3A00EA2A2A900B417327
:070B4100020C2F020B7702EA
:060B48000BF5020BD602C2
:060B4E000C2F020C2F0227
:060B54000C2F020C2F0221
:060B5A000C2F020B6502E6
:050B60000C2F020B6EDA
:090B650090E6BAE0F50A020C3238
:090B6E0090E6BAE0F50B020C322E
:0D0B770090E6B8E0FA53021FBA00028005B4
:050B8400BA024A800ADC
:0A0B890090E6BAE01205AF020C324C
:0E0B930090E6BAE0703390E6BCE0FAF582120C
:0E0BA1000908E582602590E6BCE0FAF58212B4
:0E0BAF000927AA82AB83E0FC5304FE8A828BE6
:0E0BBD0083ECF090E6BCE0FAF5821205B880F9
:010BCB0066C3
:050BCC001205AF80617D
:050BD1001205AF805C7D
:0E0BD60090E6B8E0FA53021FBA005190E6BA5A
:070BE400E0FABA01028005EE
:050BEB00BA0202804285
:050BF0001205AF803D7D
:0E0BF50090E6BAE0FA702E90E6BCE0FAF582C7
:0E0C0300120908E582601B90E6BCE0FAF5825B
:0E0C1100120927AA82AB83E0FC4304018A8209
:060C1F008B83ECF0800D58
:050C25001205AF80087C
:050C2A001205AF80037C
:030C2F001205AFFC
:090C320090E6A0E0FA4480F022F3
:030C440075812097
:0A0C470012058DE5826003020180B2
:00000001FF
